S01600004763634170706C69636174696F6E2E737265638D
S11300000C9434000C9451000C9451000C94510045
S11300100C9451000C9451000C9451000C94510018
S11300200C9451000C9451000C9451000C94510008
S11300300C9451000C9451000C9451000C945100F8
S11300400C940E030C9451000C9451000C94510028
S11300500C9451000C94C5010C9451000C94510063
S11300600C9451000C94510011241FBECFEFD8E022
S1130070DEBFCDBF11E0A0E0B1E0E0EDFCE002C0E6
S113008005900D92AC32B107D9F721E0ACE2B1E0B2
S113009001C01D92A133B207E1F70E9482010C94C2
S11300A066060C940000CF93DF93CDB7DEB78CE7E0
S11300B090E020E4FC0120838AE790E02FECFC012F
S11300C020830000DF91CF910895CF93DF93CDB7C4
S11300D0DEB784E290E02FE0FC01208385E290E02B
S11300E02FE0FC01208387E290E02FEFFC012083C6
S11300F088E290E0FC0110820000DF91CF91089526
S1130100CF93DF9300D0CDB7DEB79A83898380EC99
S113011090E0FC01108281EC90E028E0FC01208357
S113012082EC90E026E0FC01208385EC90E02981BC
S11301303A81232F3327FC01208384EC90E029812A
S1130140FC01208300000F900F90DF91CF91089560
S1130150CF93DF931F92CDB7DEB78983000080EC85
S113016090E0FC018081882F90E080729927892B90
S1130170B1F386EC90E02981FC01208300000F900C
S1130180DF91CF910895CF93DF9300D000D0CDB706
S1130190DEB79C838B831A82198205C089819A8178
S11301A001969A83898329813A818B819C812817BE
S11301B03907A0F300000F900F900F900F90DF917C
S11301C0CF910895CF93DF9300D0CDB7DEB79A8354
S11301D0898310922C011DC080912C01882F90E0FE
S11301E029813A81820F931FFC0180810E94A8001B
S11301F080912C01882F90E029813A81820F931FEE
S1130200FC0180818A3091F080912C018F5F809372
S11302102C0180912C01882F90E029813A81820F52
S1130220931FFC0180818823B9F601C000000000FF
S11302300F900F90DF91CF910895CF93DF9300D06B
S113024000D0CDB7DEB78C838C8189831B821A8260
S113025019C08A819B81880F991F80509F4FFC0190
S113026090818C81981749F48A819B81880F991F0A
S11302708F5F9E4FFC01808189838A819B810196D7
S11302809B838A838A819B81880F991F80509F4F0B
S1130290FC0180818A35E9F689810F900F900F90D7
S11302A00F90DF91CF910895CF93DF9300D01F92E9
S11302B0CDB7DEB78A836B838A81282F30E081E053
S11302C090E002C0880F991F2A95E2F780958983F0
S11302D085E290E02FEFFC01208382E090E00E9411
S11302E0C30085E290E02981FC01208388E290E04C
S11302F02B81FC01208300000F900F900F90DF9161
S1130300CF910895CF93DF93CDB7DEB70E946500F8
S11303100E94530088E090E00E94800078948AE76D
S113032090E02AE730E0F90120812064FC01208379
S11303308AE191E00E94E20080912D01682F80E023
S11303400E94540186E090E00E94C30080912E0137
S1130350682F81E00E94540186E090E00E94C3006F
S113036080912F01682F82E00E94540186E090E082
S11303700E94C30080913001682F83E00E945401E1
S113038080E69AEE0E94C300D7CF1F920F9200908E
S11303905F000F9211242F933F934F935F936F93BA
S11303A07F938F939F93AF93BF93EF93FF93CF93D9
S11303B0DF93CDB7DEB7A497DEBFCDBF88E790E06B
S11303C0FC018081882F90E0A0E0B0E089879A87C3
S11303D0AB87BC8789E790E0FC018081882F90E09F
S11303E0982F8827092E000CAA0BBB0B29853A8568
S11303F04B855C85822B932BA42BB52B89879A87FD
S1130400AB87BC8729853A854B855C8584EF91E071
S1130410DC010E944003DC01CB01BB2324F48150A6
S11304209C4FAF4FBF4F072E7AE0B595A795979590
S113043087957A95D1F7702D8D879E87AF87B88B76
S11304408D859E85AF85B8899C01AD0129513109FF
S11304504109510980ED97E0DC010E944003DC0171
S1130460CB0122EC31E040E050E0BC01CD010E9420
S11304702103DA01C901845F9140A109B109898B83
S11304809A8BAB8BBC8B8C898F938B898F938A8946
S11304908F9389898F9387E291E0892F8F9387E2E5
S11304A091E08F93CE014596292F2F938F930E942D
S11304B07C034DB75EB7485F5F4F0FB6F894DEBF5D
S11304C00FBECDBF1A82198205C089819A81019617
S11304D09A8389839E012B5E3F4F89819A81820F83
S11304E0931FFC018081882381F710922D011092C3
S11304F02E0110922F011092300118861F821C8247
S11305001B8220C09E012B5E3F4F8B819C81820FFA
S1130510931FFC018081803380F09E012B5E3F4F4E
S11305208B819C81820F931FFC0180818A3328F484
S11305308F819885019698878F838B819C81019602
S11305409C838B838B819C810497E4F224E030E0CC
S113055089819A81A901481B590BCA019C838B8309
S1130560CE0145969E838D8317C08D819E81FC01AB
S113057080810E941D01282F8B819C81835D9E4F69
S1130580FC0120838D819E8101969E838D838B81C6
S11305909C8101969C838B838B819C8104972CF393
S11305A08F819885019769F480912E0180932D01A4
S11305B080912F0180932E0180E30E941D0180937E
S11305C02F018EE20E941D01982F80912F01892B0B
S11305D080932F018AE790E02AE730E0F901208137
S11305E02064FC0120830000A4960FB6F894DEBFBB
S11305F00FBECDBFDF91CF91FF91EF91BF91AF912E
S11306009F918F917F916F915F914F913F912F9126
S11306100F9000925F000F901F9018951F920F92F9
S113062000905F000F921124CF93DF93CDB7DEB714
S11306300000DF91CF910F9000925F000F901F9008
S11306401895052E97FB1EF400940E94380357FD5D
S113065007D00E944B0307FC03D04EF40C943803DC
S113066050954095309521953F4F4F4F5F4F0895DA
S113067090958095709561957F4F8F4F9F4F08950A
S11306800E946D03A59F900DB49F900DA49F800DB3
S1130690911D11240895A1E21A2EAA1BBB1BFD0172
S11306A00DC0AA1FBB1FEE1FFF1FA217B307E4074D
S11306B0F50720F0A21BB30BE40BF50B661F771FA5
S11306C0881F991F1A9469F7609570958095909585
S11306D09B01AC01BD01CF010895A29FB001B39F5E
S11306E0C001A39F700D811D1124911DB29F700D37
S11306F0811D1124911D0895AEE0B0E0E2E8F3E01D
S11307000C943D060D891E8986E08C831A83098327
S11307108FEF9FE79E838D83AE01475E5F4F6F89A6
S1130720788DCE0101960E949E03EF81F885E00F3B
S1130730F11F10822E96E4E00C945906ABE0B0E071
S1130740E4EAF3E00C942F066C017B018A01FC01BE
S113075017821682838181FFCCC1CE0101963C01B0
S1130760F6019381F70193FD859193FF81917F01B8
S1130770882309F4BAC1853239F493FD859193FF36
S113078081917F01853229F4B60190E00E9495059C
S1130790E7CF912C212C312CFFE1F315D8F08B32CB
S11307A079F038F4803279F08332A1F4232D20617A
S11307B01DC08D3261F0803369F4232D216016C091
S11307C0832D8260382EE32DE4603E2E2AC0F32D63
S11307D0F8601DC037FC2DC020ED280F2A3040F0F2
S11307E08E32B9F436FC81C1232D2064322E19C017
S11307F036FE06C08AE0989E200D1124922E11C068
S1130800EAE02E9E200D1124222EF32DF0623F2EBD
S113081008C08C3621F4832D8068382E02C08836B7
S113082041F4F70193FD859193FF81917F0181113B
S1130830B3CF982F9F7D9554933028F40C5F1F4FAE
S11308409FE399830DC0833631F0833771F083358C
S113085009F059C021C0F801808189830E5F1F4FC0
S113086088248394912C530113C02801F2E04F0E85
S1130870511CF801A080B18036FE03C0692D70E0E0
S113088002C06FEF7FEFC5010E948A054C0182010F
S1130890F32DFF773F2E16C0280122E0420E511C93
S11308A0F801A080B18036FE03C0692D70E002C05B
S11308B06FEF7FEFC5010E947F054C01F32DF068B7
S11308C03F2E820133FC1BC0822D90E088169906CE
S11308D0B0F4B60180E290E00E9495052A94F4CF2A
S11308E0F50137FC859137FE81915F01B60190E0F7
S11308F00E94950521102A9421E0821A91088114FE
S1130900910471F7E8C0843611F0893641F5F80195
S113091037FE07C060817181828193810C5F1F4F14
S113092008C060817181072E000C880B990B0E5F43
S11309301F4FF32DFF763F2E97FF09C090958095AA
S1130940709561957F4F8F4F9F4FF0683F2E2AE03F
S113095030E0A3010E94D105882E861845C0853752
S113096031F4232D2F7EB22E2AE030E025C0932DC2
S1130970997FB92E8F36C1F018F4883579F0B5C057
S1130980803719F0883721F0B0C0E92FE061BE2E1E
S1130990B4FE0DC0FB2DF460BF2E09C034FE0AC0A6
S11309A0292F2660B22E06C028E030E005C020E1E1
S11309B030E002C020E132E0F801B7FE07C06081F8
S11309C07181828193810C5F1F4F06C060817181A8
S11309D080E090E00E5F1F4FA3010E94D105882E96
S11309E08618FB2DFF773F2E36FE0DC0232D2E7F5C
S11309F0A22E891458F434FE0BC032FC09C0832D96
S1130A008E7EA82E05C0B82CA32C03C0B82C01C020
S1130A10B92CA4FE0FC0FE01E80DF11D80818033C6
S1130A2021F49A2D997EA92E09C0A2FE06C0B39482
S1130A30B39404C08A2D867809F0B394A3FC11C042
S1130A40A0FE06C0B21488F4280C922C9B180EC089
S1130A50B21460F4B60180E290E00E949505B3946C
S1130A60F7CFB21418F42B1802C0982C212CA4FE32
S1130A7010C0B60180E390E00E949505A2FE17C065
S1130A80A1FC03C088E790E002C088E590E0B601CD
S1130A900CC08A2D867859F0A1FE02C08BE201C0F9
S1130AA080E2A7FC8DE2B60190E00E9495058914CE
S1130AB038F4B60180E390E00E9495059A94F7CF4C
S1130AC08A94F301E80DF11D8081B60190E00E9443
S1130AD095058110F5CF222009F442CEB60180E2BB
S1130AE090E00E9495052A94F6CFF60186819781BD
S1130AF002C08FEF9FEF2B96E2E10C944B06FC01B2
S1130B000590615070400110D8F7809590958E0F34
S1130B109F1F0895FC016150704001900110D8F7A7
S1130B20809590958E0F9F1F08950F931F93CF93D9
S1130B30DF93FB01238121FD03C08FEF9FEF2CC0C6
S1130B4022FF16C0468157812481358142175307FD
S1130B5044F4A081B1819D012F5F3F4F31832083F5
S1130B608C93268137812F5F3F4F3783268314C0B0
S1130B708B01EC01FB010084F185E02D0995892BA3
S1130B80E1F6D80116968D919C91179701961796C8
S1130B909C938E931697CE01DF91CF911F910F9165
S1130BA00895FA01AA27283051F1203181F1E894FF
S1130BB06F936E7F6E5F7F4F8F4F9F4FAF4FB1E04C
S1130BC03ED0B4E03CD0670F781F891F9A1FA11D47
S1130BD0680F791F8A1F911DA11D6A0F711D811D48
S1130BE0911DA11D20D009F468943F912AE0269F0D
S1130BF011243019305D3193DEF6CF010895462F6C
S1130C004770405D4193B3E00FD0C9F7F6CF462F4C
S1130C104F70405D4A3318F0495D31FD40524193B5
S1130C2002D0A9F7EACFB4E0A69597958795779572
S1130C306795BA95C9F700976105710508959B01F9
S1130C40AC010A2E06945795479537952795BA9582
S1130C50C9F7620F731F841F951FA01D08952F925B
S1130C603F924F925F926F927F928F929F92AF9238
S1130C70BF92CF92DF92EF92FF920F931F93CF9385
S1130C80DF93CDB7DEB7CA1BDB0B0FB6F894DEBF1C
S1130C900FBECDBF09942A88398848885F846E8442
S1130CA07D848C849B84AA84B984C884DF80EE808C
S1130CB0FD800C811B81AA81B981CE0FD11D0FB695
S1130CC0F894DEBF0FBECDBFED010895F894FFCFB9
S1130CD030FC316032DA33F2346635B636BE37E092
S1130CE038FE39F62D022E015A005465726D6F6D6F
S10F0CF0657465720D0A00256C64000038
S9030000FC
