:1000000014C02EC02DC02CC02BC02AC029C028C0AF
:1000100027C063C125C024C023C022C087C020C020
:100020001FC01EC01DC01CC01BC011241FBECFE5B9
:10003000D2E0DEBFCDBF10E0A0E6B0E0EAE4F9E038
:1000400002C005900D92AC38B107D9F720E0ACE8BA
:10005000B0E001C01D92A139B207E1F745D073C4E9
:10006000CFCF80E487B98FEC86B908958FE087BB46
:1000700088BB8FEF84BB15BA08951BB828E02AB956
:1000800026E020BD90BD89B90895FC0110928C0036
:1000900090819923A1F05D9BFECF9CB990918C003B
:1000A000DF01A90FB11D8C918A3049F09F5F9093B9
:1000B0008C00DF01A90FB11D9C919111ECCF089527
:1000C000909160009A3569F0E1E6F0E0282F8913FD
:1000D00001C020813296DF0111979C919A35B9F7C2
:1000E00001C0282F822F0895C1DFBBDF88E090E098
:1000F000C4DF7894369A8AE790E0C7DFEDE8F0E055
:100100008FEF5EEF4DEF3BEF27EF908188BB58BB41
:1001100095BB918188BB48BB95BB928188BB38BB9E
:1001200095BB938188BB28BB95BBEFCF1F920F92E5
:100130000FB60F921124CF92DF92EF92FF920F939E
:100140001F932F933F934F935F936F937F938F935F
:100150009F93AF93BF93EF93FF93CF93DF93CDB76D
:10016000DEB76097DEBFCDBF84B125B130E0322F5E
:100170002227A901330F660B770B9A01AB01282BBD
:10018000A4EFB1E0D0D08B019C01992324F401505D
:100190001C4F2F4F3F4FD901C801072E7AE0B5956C
:1001A000A795979587957A95D1F7702D9C01AD010C
:1001B0002951310941095109A0EDB7E0B4D022EC31
:1001C00031E040E050E093D0DA01C901845F914012
:1001D000A109B109BF93AF939F938F9387E890E0F4
:1001E0009F938F93CE0101969F938F93D4D00FB698
:1001F000F894DEBF0FBECDBF8981882349F0FE0190
:10020000329680E090E0019621912111FCCF02C04E
:1002100080E090E0EDE8F0E010821182128213821B
:10022000FE013196AE014B5F5F4FE12CF12C219125
:1002300020532A3018F42FEFE21AF20AE417F507D8
:10024000B1F704E010E0081B190B0430110584F429
:10025000CE0101966C01F60181916F0131DFF80149
:10026000E357FF4F80830F5F1F4F0430110599F74D
:10027000EA94EF2859F40DE810E0F80181818083B9
:100280008281818380E31CDFF80182838EE218DFA4
:10029000EDE8F0E09281892B8283369A60960FB662
:1002A000F894DEBF0FBECDBFDF91CF91FF91EF91EC
:1002B000BF91AF919F918F917F916F915F914F917E
:1002C0003F912F911F910F91FF90EF90DF90CF9072
:1002D0000F900FBE0F901F9018951F920F920FB6A0
:1002E0000F9211240F900FBE0F901F901895052E9E
:1002F00097FB16F400940FD057FD05D01ED007FCD5
:1003000002D046F408C050954095309521953F4F56
:100310004F4F5F4F089590958095709561957F4FF1
:100320008F4F9F4F08952BD0A59F900DB49F900D98
:10033000A49F800D911D11240895A1E21A2EAA1BDD
:10034000BB1BFD010DC0AA1FBB1FEE1FFF1FA21785
:10035000B307E407F50720F0A21BB30BE40BF50B82
:10036000661F771F881F991F1A9469F7609570950B
:10037000809590959B01AC01BD01CF010895A29F8E
:10038000B001B39FC001A39F01D0B29F700D811D2A
:100390001124911D0895AEE0B0E0E0EDF1E0AAC2B5
:1003A0000D891E8986E08C831A8309838FEF9FE76E
:1003B0009E838D83AE01475E5F4F6F89788DCE013E
:1003C000019608D0EF81F885E00FF11F10822E967C
:1003D000E4E0ACC2ABE0B0E0EFEEF1E07DC26C0176
:1003E0007B018A01FC0117821682838181FFBFC1D4
:1003F000CE0101963C01F6019381F70193FD8591B1
:1004000093FF81917F01882309F4ADC1853239F4CE
:1004100093FD859193FF81917F01853221F4B6018F
:1004200090E0C0D1E8CF912C212C312CFFE1F315C5
:10043000D8F08B3279F038F4803279F08332A1F43D
:10044000232D20611DC08D3261F0803369F4232D8E
:10045000216016C0832D8260382EE32DE4603E2E8D
:100460002AC0F32DF8601DC037FC2DC020ED280FE9
:100470002A3040F08E32B9F436FC75C1232D206449
:10048000322E19C036FE06C08AE0989E200D112437
:10049000922E11C0EAE02E9E200D1124222EF32D63
:1004A000F0623F2E08C08C3621F4832D8068382EF0
:1004B00002C0883641F4F70193FD859193FF819145
:1004C0007F018111B3CF982F9F7D9554933028F4ED
:1004D0000C5F1F4F9FE399830DC0833631F0833744
:1004E00071F0833509F055C020C0F80180818983FF
:1004F0000E5F1F4F88248394912C530112C0280152
:10050000F2E04F0E511CF801A080B18036FE03C00E
:10051000692D70E002C06FEF7FEFC50138D14C014B
:100520008201F32DFF773F2E15C0280122E0420EF5
:10053000511CF801A080B18036FE03C0692D70E027
:1005400002C06FEF7FEFC50117D14C01F32DF068AA
:100550003F2E820133FC19C0822D90E08816990647
:10056000A0F4B60180E290E01DD12A94F5CFF50108
:1005700037FC859137FE81915F01B60190E012D181
:1005800021102A9421E0821A91088114910479F7AC
:10059000E1C0843611F0893639F5F80137FE07C01D
:1005A00060817181828193810C5F1F4F08C06081DF
:1005B0007181072E000C880B990B0E5F1F4FF32DD6
:1005C000FF763F2E97FF09C09095809570956195B5
:1005D0007F4F8F4F9F4FF0683F2E2AE030E0A301FE
:1005E0001DD1882E861844C0853731F4232D2F7EE7
:1005F000B22E2AE030E025C0932D997FB92E8F3698
:10060000C1F018F4883579F0AEC0803719F088371A
:1006100021F0A9C0E92FE061BE2EB4FE0DC0FB2D74
:10062000F460BF2E09C034FE0AC0292F2660B22E06
:1006300006C028E030E005C020E130E002C020E143
:1006400032E0F801B7FE07C0608171818281938139
:100650000C5F1F4F06C06081718180E090E00E5FEB
:100660001F4FA301DBD0882E8618FB2DFF773F2E6E
:1006700036FE0DC0232D2E7FA22E891458F434FE91
:100680000BC032FC09C0832D8E7EA82E05C0B82C6D
:10069000A32C03C0B82C01C0B92CA4FE0FC0FE01CE
:1006A000E80DF11D8081803321F49A2D997EA92EC9
:1006B00009C0A2FE06C0B394B39404C08A2D867804
:1006C00009F0B394A3FC10C0A0FE06C0B21480F4DD
:1006D000280C922C9B180DC0B21458F4B60180E27D
:1006E00090E060D0B394F8CFB21418F42B1802C085
:1006F000982C212CA4FE0FC0B60180E390E052D0CC
:10070000A2FE16C0A1FC03C088E790E002C088E505
:1007100090E0B6010CC08A2D867851F0A1FE02C08F
:100720008BE201C080E2A7FC8DE2B60190E03AD0F6
:10073000891430F4B60180E390E034D09A94F8CF75
:100740008A94F301E80DF11D8081B60190E02AD072
:100750008110F6CF222009F44ECEB60180E290E05F
:1007600021D02A94F7CFF6018681978102C08FEFBE
:100770009FEF2B96E2E1CCC0FC01059061507040E8
:100780000110D8F7809590958E0F9F1F0895FC015A
:100790006150704001900110D8F7809590958E0FB0
:1007A0009F1F08950F931F93CF93DF93FB01238126
:1007B00021FD03C08FEF9FEF2CC022FF16C04681A2
:1007C0005781248135814217530744F4A081B181B8
:1007D0009D012F5F3F4F318320838C93268137818A
:1007E0002F5F3F4F3783268314C08B01EC01FB0141
:1007F0000084F185E02D0995892BE1F6D801169644
:100800008D919C911797019617969C938E931697AE
:10081000CE01DF91CF911F910F910895FA01AA2780
:10082000283051F1203181F1E8946F936E7F6E5F33
:100830007F4F8F4F9F4FAF4FB1E03ED0B4E03CD0E1
:10084000670F781F891F9A1FA11D680F791F8A1FC4
:10085000911DA11D6A0F711D811D911DA11D20D02B
:1008600009F468943F912AE0269F11243019305DE5
:100870003193DEF6CF010895462F4770405D4193D6
:10088000B3E00FD0C9F7F6CF462F4F70405D4A3323
:1008900018F0495D31FD4052419302D0A9F7EACFEB
:1008A000B4E0A6959795879577956795BA95C9F71A
:1008B00000976105710508959B01AC010A2E06940D
:1008C0005795479537952795BA95C9F7620F731FC6
:1008D000841F951FA01D08952F923F924F925F9203
:1008E0006F927F928F929F92AF92BF92CF92DF9240
:1008F000EF92FF920F931F93CF93DF93CDB7DEB7A5
:10090000CA1BDB0B0FB6F894DEBF0FBECDBF099438
:100910002A88398848885F846E847D848C849B848F
:10092000AA84B984C884DF80EE80FD800C811B819D
:10093000AA81B981CE0FD11D0FB6F894DEBF0FBECC
:0A094000CDBFED010895F894FFCF3C
:10094A0030FC316032DA33F2346635B636BE37E01F
:10095A0038FE39F62D022E015A005465726D6F6DFC
:0C096A00657465720D0A00256C640000C5
:00000001FF
